{
  "_format": "hh-sol-artifact-1",
  "contractName": "CRID",
  "sourceName": "contracts/CRID.sol",
  "abi": [
    {
      "inputs": [
        {
          "internalType": "string",
          "name": "codigo",
          "type": "string"
        },
        {
          "internalType": "string",
          "name": "nome",
          "type": "string"
        },
        {
          "internalType": "uint8",
          "name": "creditos",
          "type": "uint8"
        },
        {
          "internalType": "uint256",
          "name": "cargaHoraria",
          "type": "uint256"
        },
        {
          "internalType": "string",
          "name": "tipoInscricao",
          "type": "string"
        }
      ],
      "name": "adicionarDisciplina",
      "outputs": [],
      "stateMutability": "nonpayable",
      "type": "function"
    },
    {
      "inputs": [
        {
          "internalType": "address",
          "name": "aluno",
          "type": "address"
        }
      ],
      "name": "getDisciplinas",
      "outputs": [
        {
          "components": [
            {
              "internalType": "string",
              "name": "codigo",
              "type": "string"
            },
            {
              "internalType": "string",
              "name": "nome",
              "type": "string"
            },
            {
              "internalType": "uint8",
              "name": "creditos",
              "type": "uint8"
            },
            {
              "internalType": "uint256",
              "name": "cargaHoraria",
              "type": "uint256"
            },
            {
              "internalType": "string",
              "name": "tipoInscricao",
              "type": "string"
            }
          ],
          "internalType": "struct CRID.Disciplina[]",
          "name": "",
          "type": "tuple[]"
        }
      ],
      "stateMutability": "view",
      "type": "function"
    },
    {
      "inputs": [
        {
          "internalType": "string",
          "name": "nomeAluno",
          "type": "string"
        },
        {
          "internalType": "string",
          "name": "matricula",
          "type": "string"
        },
        {
          "internalType": "string",
          "name": "curso",
          "type": "string"
        },
        {
          "internalType": "string",
          "name": "periodo",
          "type": "string"
        }
      ],
      "name": "registrarCRID",
      "outputs": [],
      "stateMutability": "nonpayable",
      "type": "function"
    },
    {
      "inputs": [
        {
          "internalType": "address",
          "name": "",
          "type": "address"
        }
      ],
      "name": "registros",
      "outputs": [
        {
          "internalType": "string",
          "name": "nomeAluno",
          "type": "string"
        },
        {
          "internalType": "string",
          "name": "matricula",
          "type": "string"
        },
        {
          "internalType": "string",
          "name": "curso",
          "type": "string"
        },
        {
          "internalType": "string",
          "name": "periodo",
          "type": "string"
        },
        {
          "internalType": "uint8",
          "name": "totalCreditos",
          "type": "uint8"
        }
      ],
      "stateMutability": "view",
      "type": "function"
    }
  ],
  "bytecode": "0x608060405234801561001057600080fd5b50611424806100206000396000f3fe608060405234801561001057600080fd5b506004361061004c5760003560e01c8063173b300d14610051578063e5b87a111461006d578063e79fa74f1461009d578063fd0121e7146100d1575b600080fd5b61006b60048036038101906100669190610a67565b6100ed565b005b61008760048036038101906100829190610b9c565b61022f565b6040516100949190610dc3565b60405180910390f35b6100b760048036038101906100b29190610b9c565b6104ac565b6040516100c8959493929190610e3e565b60405180910390f35b6100eb60048036038101906100e69190610f05565b61070f565b005b836000803373ffffffffffffffffffffffffffffffffffffffff1673ffffffffffffffffffffffffffffffffffffffff168152602001908152602001600020600001908161013b91906111e0565b50826000803373ffffffffffffffffffffffffffffffffffffffff1673ffffffffffffffffffffffffffffffffffffffff168152602001908152602001600020600101908161018a91906111e0565b50816000803373ffffffffffffffffffffffffffffffffffffffff1673ffffffffffffffffffffffffffffffffffffffff16815260200190815260200160002060020190816101d991906111e0565b50806000803373ffffffffffffffffffffffffffffffffffffffff1673ffffffffffffffffffffffffffffffffffffffff168152602001908152602001600020600301908161022891906111e0565b5050505050565b60606000808373ffffffffffffffffffffffffffffffffffffffff1673ffffffffffffffffffffffffffffffffffffffff168152602001908152602001600020600401805480602002602001604051908101604052809291908181526020016000905b828210156104a157838290600052602060002090600502016040518060a00160405290816000820180546102c590611003565b80601f01602080910402602001604051908101604052809291908181526020018280546102f190611003565b801561033e5780601f106103135761010080835404028352916020019161033e565b820191906000526020600020905b81548152906001019060200180831161032157829003601f168201915b5050505050815260200160018201805461035790611003565b80601f016020809104026020016040519081016040528092919081815260200182805461038390611003565b80156103d05780601f106103a5576101008083540402835291602001916103d0565b820191906000526020600020905b8154815290600101906020018083116103b357829003601f168201915b505050505081526020016002820160009054906101000a900460ff1660ff1660ff1681526020016003820154815260200160048201805461041090611003565b80601f016020809104026020016040519081016040528092919081815260200182805461043c90611003565b80156104895780601f1061045e57610100808354040283529160200191610489565b820191906000526020600020905b81548152906001019060200180831161046c57829003601f168201915b50505050508152505081526020019060010190610292565b505050509050919050565b60006020528060005260406000206000915090508060000180546104cf90611003565b80601f01602080910402602001604051908101604052809291908181526020018280546104fb90611003565b80156105485780601f1061051d57610100808354040283529160200191610548565b820191906000526020600020905b81548152906001019060200180831161052b57829003601f168201915b50505050509080600101805461055d90611003565b80601f016020809104026020016040519081016040528092919081815260200182805461058990611003565b80156105d65780601f106105ab576101008083540402835291602001916105d6565b820191906000526020600020905b8154815290600101906020018083116105b957829003601f168201915b5050505050908060020180546105eb90611003565b80601f016020809104026020016040519081016040528092919081815260200182805461061790611003565b80156106645780601f1061063957610100808354040283529160200191610664565b820191906000526020600020905b81548152906001019060200180831161064757829003601f168201915b50505050509080600301805461067990611003565b80601f01602080910402602001604051908101604052809291908181526020018280546106a590611003565b80156106f25780601f106106c7576101008083540402835291602001916106f2565b820191906000526020600020905b8154815290600101906020018083116106d557829003601f168201915b5050505050908060050160009054906101000a900460ff16905085565b60008060003373ffffffffffffffffffffffffffffffffffffffff1673ffffffffffffffffffffffffffffffffffffffff1681526020019081526020016000209050600081600001805461076290611003565b9050116107a4576040517f08c379a000000000000000000000000000000000000000000000000000000000815260040161079b906112fe565b60405180910390fd5b6020848260050160009054906101000a900460ff166107c3919061134d565b60ff161115610807576040517f08c379a00000000000000000000000000000000000000000000000000000000081526004016107fe906113ce565b60405180910390fd5b806004016040518060a001604052808881526020018781526020018660ff168152602001858152602001848152509080600181540180825580915050600190039060005260206000209060050201600090919091909150600082015181600001908161087391906111e0565b50602082015181600101908161088991906111e0565b5060408201518160020160006101000a81548160ff021916908360ff1602179055506060820151816003015560808201518160040190816108ca91906111e0565b505050838160050160008282829054906101000a900460ff166108ed919061134d565b92506101000a81548160ff021916908360ff160217905550505050505050565b6000604051905090565b600080fd5b600080fd5b600080fd5b600080fd5b6000601f19601f8301169050919050565b7f4e487b7100000000000000000000000000000000000000000000000000000000600052604160045260246000fd5b6109748261092b565b810181811067ffffffffffffffff821117156109935761099261093c565b5b80604052505050565b60006109a661090d565b90506109b2828261096b565b919050565b600067ffffffffffffffff8211156109d2576109d161093c565b5b6109db8261092b565b9050602081019050919050565b82818337600083830152505050565b6000610a0a610a05846109b7565b61099c565b905082815260208101848484011115610a2657610a25610926565b5b610a318482856109e8565b509392505050565b600082601f830112610a4e57610a4d610921565b5b8135610a5e8482602086016109f7565b91505092915050565b60008060008060808587031215610a8157610a80610917565b5b600085013567ffffffffffffffff811115610a9f57610a9e61091c565b5b610aab87828801610a39565b945050602085013567ffffffffffffffff811115610acc57610acb61091c565b5b610ad887828801610a39565b935050604085013567ffffffffffffffff811115610af957610af861091c565b5b610b0587828801610a39565b925050606085013567ffffffffffffffff811115610b2657610b2561091c565b5b610b3287828801610a39565b91505092959194509250565b600073ffffffffffffffffffffffffffffffffffffffff82169050919050565b6000610b6982610b3e565b9050919050565b610b7981610b5e565b8114610b8457600080fd5b50565b600081359050610b9681610b70565b92915050565b600060208284031215610bb257610bb1610917565b5b6000610bc084828501610b87565b91505092915050565b600081519050919050565b600082825260208201905092915050565b6000819050602082019050919050565b600081519050919050565b600082825260208201905092915050565b60005b83811015610c2f578082015181840152602081019050610c14565b60008484015250505050565b6000610c4682610bf5565b610c508185610c00565b9350610c60818560208601610c11565b610c698161092b565b840191505092915050565b600060ff82169050919050565b610c8a81610c74565b82525050565b6000819050919050565b610ca381610c90565b82525050565b600060a0830160008301518482036000860152610cc68282610c3b565b91505060208301518482036020860152610ce08282610c3b565b9150506040830151610cf56040860182610c81565b506060830151610d086060860182610c9a565b5060808301518482036080860152610d208282610c3b565b9150508091505092915050565b6000610d398383610ca9565b905092915050565b6000602082019050919050565b6000610d5982610bc9565b610d638185610bd4565b935083602082028501610d7585610be5565b8060005b85811015610db15784840389528151610d928582610d2d565b9450610d9d83610d41565b925060208a01995050600181019050610d79565b50829750879550505050505092915050565b60006020820190508181036000830152610ddd8184610d4e565b905092915050565b600082825260208201905092915050565b6000610e0182610bf5565b610e0b8185610de5565b9350610e1b818560208601610c11565b610e248161092b565b840191505092915050565b610e3881610c74565b82525050565b600060a0820190508181036000830152610e588188610df6565b90508181036020830152610e6c8187610df6565b90508181036040830152610e808186610df6565b90508181036060830152610e948185610df6565b9050610ea36080830184610e2f565b9695505050505050565b610eb681610c74565b8114610ec157600080fd5b50565b600081359050610ed381610ead565b92915050565b610ee281610c90565b8114610eed57600080fd5b50565b600081359050610eff81610ed9565b92915050565b600080600080600060a08688031215610f2157610f20610917565b5b600086013567ffffffffffffffff811115610f3f57610f3e61091c565b5b610f4b88828901610a39565b955050602086013567ffffffffffffffff811115610f6c57610f6b61091c565b5b610f7888828901610a39565b9450506040610f8988828901610ec4565b9350506060610f9a88828901610ef0565b925050608086013567ffffffffffffffff811115610fbb57610fba61091c565b5b610fc788828901610a39565b9150509295509295909350565b7f4e487b7100000000000000000000000000000000000000000000000000000000600052602260045260246000fd5b6000600282049050600182168061101b57607f821691505b60208210810361102e5761102d610fd4565b5b50919050565b60008190508160005260206000209050919050565b60006020601f8301049050919050565b600082821b905092915050565b6000600883026110967fffffffffffffffffffffffffffffffffffffffffffffffffffffffffffffffff82611059565b6110a08683611059565b95508019841693508086168417925050509392505050565b6000819050919050565b60006110dd6110d86110d384610c90565b6110b8565b610c90565b9050919050565b6000819050919050565b6110f7836110c2565b61110b611103826110e4565b848454611066565b825550505050565b600090565b611120611113565b61112b8184846110ee565b505050565b5b8181101561114f57611144600082611118565b600181019050611131565b5050565b601f8211156111945761116581611034565b61116e84611049565b8101602085101561117d578190505b61119161118985611049565b830182611130565b50505b505050565b600082821c905092915050565b60006111b760001984600802611199565b1980831691505092915050565b60006111d083836111a6565b9150826002028217905092915050565b6111e982610bf5565b67ffffffffffffffff8111156112025761120161093c565b5b61120c8254611003565b611217828285611153565b600060209050601f83116001811461124a5760008415611238578287015190505b61124285826111c4565b8655506112aa565b601f19841661125886611034565b60005b828110156112805784890151825560018201915060208501945060208101905061125b565b8683101561129d5784890151611299601f8916826111a6565b8355505b6001600288020188555050505b505050505050565b7f43524944206e616f207265676973747261646f2e000000000000000000000000600082015250565b60006112e8601483610de5565b91506112f3826112b2565b602082019050919050565b60006020820190508181036000830152611317816112db565b9050919050565b7f4e487b7100000000000000000000000000000000000000000000000000000000600052601160045260246000fd5b600061135882610c74565b915061136383610c74565b9250828201905060ff81111561137c5761137b61131e565b5b92915050565b7f4c696d697465206465203332206372656469746f7320657863656469646f2e00600082015250565b60006113b8601f83610de5565b91506113c382611382565b602082019050919050565b600060208201905081810360008301526113e7816113ab565b905091905056fea26469706673582212205bc0fbb8e40f5380cf690605acfbba913894050da79d98164559edfb4a532bae64736f6c63430008140033",
  "linkReferences": {},
  "deployedLinkReferences": {}
}